:020000040800F2
:1000000008160020CD0100082D1B0008930D0008E4
:100010004D190008D7020008632C000800000000FA
:10002000000000000000000000000000172300088E
:100030002503000800000000C11B00082924000857
:10004000E7010008E7010008E7010008E7010008F0
:10005000E7010008E7010008E7010008B105000812
:10006000E7010008E7010008F9050008E7010008BA
:10007000E7010008E7010008E7010008E7010008C0
:10008000E7010008E7010008E7010008E7010008B0
:10009000E7010008E7010008E70100084106000841
:1000A000E7010008E7010008E7010008E701000890
:1000B000E70100088D240008E7010008E7010008B7
:1000C000E7010008E7010008E7010008E701000870
:1000D000E70100083D2700087D280008252A0008C0
:1000E000E7010008E7010008E7010008E701000850
:1000F000E7010008E7010008E7010008E701000840
:10010000E7010008E7010008E7010008E70100082F
:10011000E7010008E7010008E7010008E70100081F
:10012000E7010008E7010008E7010008E70100080F
:1001300000F002F800F03AF80AA090E8000C8244BF
:100140008344AAF10107DA4501D100F02FF8AFF29C
:10015000090EBAE80F0013F0010F18BFFB1A43F0A5
:10016000010318471049000030490000103A24BF2D
:1001700078C878C1FAD8520724BF30C830C144BF0C
:1001800004680C607047000000230024002500264E
:10019000103A28BF78C1FBD8520728BF30C148BFEA
:1001A0000B6070471FB51FBD10B510BD00F033F8D0
:1001B0001146FFF7F7FF03F07BF800F051F803B4A6
:1001C000FFF7F2FF03BC03F01DF800000948804769
:1001D00009480047FEE7FEE7FEE7FEE7FEE7FEE729
:1001E000FEE7FEE7FEE7FEE704480549054A064B41
:1001F000704700002D24000831010008081000207D
:1002000008160020081200200812002070477047CE
:10021000704770477047754600F02CF8AE460500F1
:100220006946534620F00700854618B020B5FFF711
:10023000DBFFBDE820404FF000064FF000074FF015
:1002400000084FF0000B21F00701AC46ACE8C009F4
:10025000ACE8C009ACE8C009ACE8C0098D467047FD
:1002600010B50446AFF300802046BDE81040FFF70C
:10027000A6BF000000487047A40F00202DE9F04100
:1002800004460D4616461F462A2001F063F8C4F3C3
:10029000072001F053F8E0B201F050F8C6F3072050
:1002A00001F04CF8F0B201F049F82B2001F052F8BF
:1002B000C5F3072001F042F8E8B201F03FF8C7F3B8
:1002C000072001F03BF8F8B201F038F82C2001F0DB
:1002D00041F8BDE8F08100BFFEE70000002000BF4C
:1002E00003E00021044A1154401CB0F5487FF8D3C4
:1002F0000021024A118070470809002040000020B8
:10030000002000BF03E00021044A1154401CFA28D9
:10031000F9D30021024A118070470000220D00200D
:10032000440000207047000010B500203F490860DD
:100330004FF6E0703E4908603EA23221002000F0F6
:100340005FFF41A002F0EEF94FF4FA7002F08AFF6D
:100350003EA002F0E7F94FF47A7002F083FF4FF409
:100360007A7002F07FFF3DA002F03AFA3FA002F05F
:10037000D9F94FF47A7002F075FF4FF47A7002F0F9
:1003800071FF4FF47A7002F06DFF4FF47A7002F053
:1003900069FF4FF47A7002F065FF4FF47A7002F053
:1003A00061FFFFF79BFF00203349087033A002F084
:1003B00017FA37A002F0B6F939A24621002000F062
:1003C0001FFF02F0E9FF39A002F00AFA3CA002F098
:1003D000A9F943A25A21002000F012FF02F0DCFF2D
:1003E00046A002F0FDF94AA002F09CF94CA26E2151
:1003F000002000F005FF02F0CFFF4CA002F0F0F962
:100400004EA002F08FF958A28221002000F0F8FEE1
:1004100002F0C2FF5EA002F085F902F0BDFF60A00D
:1004200002F080F902F0C6FF10BD000014000020A9
:1004300018000020436F6E6E656374696E672077E5
:100440006966692E2E2E00002B2B2B0041542B4366
:1004500049504D4F44453D300D0A0000D6D8C6F4F2
:10046000C4A3BFE92E2E2E0D0A00000041542B52CA
:1004700053540D0A000000004F000020C9E8D6C305
:10048000B9A4D7F7C4A3CABD2E2E2E0D0A000000B2
:1004900041542B43574D4F44453D310D0A00000058
:1004A00041542B43574D4F44453D3100C1ACBDD362
:1004B000D2D1D6AA576946692E2E2E0D0A00000009
:1004C00041542B43574A41503D22544852454522FE
:1004D0002C2239364E383F353165220D0A00000096
:1004E00041542B43574A41503D22544852454522DE
:1004F0002C2239364E383F3531652200B9D8B1D576
:10050000B6E0C4A3BFE9C1ACBDD32E2E2E0D0A00A8
:1005100041542B4349504D55583D300D0A000000C1
:1005200041542B4349504D55583D3000C1ACBDD3CB
:10053000B7FECEF1C6F72E2E2E0D0A0041542B43E6
:10054000495053544152543D22544350222C22319D
:1005500039322E3136382E3133372E31222C383085
:1005600038300D0A0000000041542B4349505354C9
:100570004152543D22544350222C223139322E31E3
:1005800036382E3133372E31222C383038300000B7
:1005900041542B4349504D4F44453D310D0A000015
:1005A00041542B43495053454E440D0A000000006E
:1005B00010B5142002F056FE02210C4800F0D4FBC6
:1005C00038B94FF400710A4800F0D7FB01200949FF
:1005D0000870022000F0E4F8022002F043FE4FF41D
:1005E0000071034800F0CBFB10BD00000008014083
:1005F000000C01403400002010B5142002F032FE3F
:1006000010210C4800F0B0FB38B94FF400710A48D3
:1006100000F0B3FB052009490870102000F0C0F875
:10062000022002F01FFE4FF40071034800F0A7FB08
:1006300010BD000000080140000C01403400002003
:1006400010B5142002F00EFE40211C4800F08CFB77
:1006500038B94FF400711A4800F08FFB0220194995
:1006600008702021154800F07FFB38B94FF4007165
:10067000134800F082FB03201249087080210F48C4
:1006800000F072FB38B94FF400710D4800F075FBB3
:1006900004200C490870402000F082F8202000F06F
:1006A0007FF8802000F07CF8022002F0DBFD4FF4A0
:1006B0000071034800F063FB10BD0000000801401A
:1006C000000C0140340000200EB500F065FB012154
:1006D000084601F0B7FA00208DF808000C208DF8CC
:1006E000090001208DF80A0001A800F05FF801213F
:1006F000002000F045FA0220019001A800F056F811
:100700000421002000F03CFA1020019001A800F024
:100710004DF80521002000F033FA2020019001A8B7
:1007200000F044F80621002000F02AFA4020019051
:1007300001A800F03BF80721002000F021FA8020FA
:10074000019001A800F032F807208DF80000032086
:100750008DF8010002208DF8020001208DF80300C1
:10076000684601F0EBF90A208DF8000003208DF8AF
:10077000010001208DF802008DF80300684601F0A9
:10078000DDF917208DF8000003208DF801008DF8A9
:10079000020001208DF80300684601F0CFF90EBD7C
:1007A00001490860704700001404014000212349FA
:1007B0008279002A3AD00A46126803689A430B46A7
:1007C0001A600A1D126803689A430B1D1A600279A9
:1007D00011440A6803681A430A60184A083212680A
:1007E00003689A43154B08331A601A1D1268036890
:1007F0009A43124B0C331A604279102A0ED11A1FF9
:10080000126803681A430D4B08331A601A1D1268E8
:1008100003681A43094B0C331A600DE0074942790B
:1008200011440A6803681A430A6005E0027911441A
:100830000A6803689A430A60704700000004014098
:1008400030B5044604254FF4302000F06FF805461B
:10085000042D17D10C48006940F002000A490861D4
:1008600008464461006940F0400008614FF43020C0
:1008700000F05CF805460448006941F6FD71084047
:1008800001490861284630BD0020024004200B4980
:10089000C96801F0010109B101200EE00749C968EA
:1008A00001F0040109B1022007E00449C96801F020
:1008B000100109B1032000E004207047002002402D
:1008C0000348006940F0800001490861704700005A
:1008D0000020024070B504460D460426F00200F0E8
:1008E00025F80646042E11D10948006940F00100A0
:1008F000074908612580F00200F018F80646044810
:10090000006941F6FE71084001490861304670BD3A
:10091000002002400248034948600348486070478D
:100920002301674500200240AB89EFCD00B50246A8
:100930000423FFF7ABFF034603E0FFF7A7FF0346DF
:10094000521E012B01D1002AF7D102B90523184606
:1009500000BD000010B540213B4800F005FAE0B9A9
:1009600000203A490870032239493A4801F04CFC0A
:100970004FF47A7002F076FC0020374908604FF699
:10098000E0703649086036A21E210A2000F057FCAC
:1009900038A21E210A2000F033FC03222C492D48E6
:1009A00001F01EFC2A488078344908702848808865
:1009B0003349086001F068FA314800683149B0FBFA
:1009C000F1F201FB12003049B0FBF1F030302F4959
:1009D00008702B4800682C49B0FBF1F201FB1200B3
:1009E00042F21071B0FBF1F03030284948702448D1
:1009F000006842F21071B0FBF1F201FB12004FF4FB
:100A00007A71B0FBF1F03030204988702E20C87028
:100A10001B4800684FF47A71B0FBF1F201FB120041
:100A20006421B0FBF1F030301849087114480068B7
:100A30006421B0FBF1F201FB12000A21B0FBF1F0DE
:100A400030301249487110BD0008014034000020C8
:100A5000B800002000F00708140000201800002053
:100A6000202020202020CAFDBEDDD2D1C7E5C1E371
:100A700000000000464C415348000000E700002001
:100A80006400002040420F00A0860100B00000205A
:100A900008B5684600F075F90121082001F0D2F888
:100AA0000121102001F0CEF84FF40070ADF80000E5
:100AB00003208DF8020010208DF8030069462E48AF
:100AC00000F07EF84FF40050ADF8000003208DF8E0
:100AD000020010208DF803006946284800F070F8E5
:100AE0004FF48040ADF8000003208DF80200102084
:100AF0008DF803006946214800F062F84FF4004089
:100B0000ADF8000003208DF8020010208DF80300DE
:100B100069461A4800F054F84FF40071164800F086
:100B20002EF94FF40051154800F029F94FF4804197
:100B3000124800F024F94FF40041104800F01FF96A
:100B40000420ADF8000003208DF8020010208DF87D
:100B500003006946094800F033F80820ADF80000AA
:100B600003208DF8020010208DF803006946034829
:100B700000F026F808BD0000000C01400010014004
:100B800030B500228B071C0F0F2303FA04F20B4B26
:100B90008C1053F824309343084C8D1044F82530C2
:100BA00023468C1053F824308C07240F00FA04F4E9
:100BB0002343024C8D1044F8253030BD080001401D
:100BC0002DE9F041024600250026002000230024E4
:100BD000002791F803C00CF00F0591F803C00CF04A
:100BE000100CBCF1000F03D091F802C04CEA0505CF
:100BF00091F800C0BCF1000F31D0146800202BE048
:100C00004FF0010C0CFA00F3B1F800C00CEA030637
:100C10009E4220D183004FF00F0C0CFA03F7BC4327
:100C200005FA03FC4CEA040491F803C0BCF1280F58
:100C300006D14FF0010C0CFA00FCC2F814C00AE017
:100C400091F803C0BCF1480F05D14FF0010C0CFA2C
:100C500000FCC2F810C0401C0828D1D31460B1F8C1
:100C600000C0BCF1FF0F34DD546800202EE000F11D
:100C7000080C4FF0010808FA0CF3B1F800C00CEAB8
:100C800003069E4221D183004FF00F0C0CFA03F7AC
:100C9000BC4305FA03FC4CEA040491F803C0BCF120
:100CA000280F05D100F1080C08FA0CF8C2F81480DE
:100CB00091F803C0BCF1480F07D100F1080C4FF0C8
:100CC000010808FA0CF8C2F81080401C0828CED39E
:100CD0005460BDE8F0810000F0B50A46002300240E
:100CE0000021002500F00046B6F1004F02D11D4E54
:100CF000F16901E01B4E7168C0F3034583B200F453
:100D00004016B6F5401F08D121F07061154E766887
:100D100026F07066134F7E6012E000F48016B6F580
:100D2000801F06D1032606FA05F4A14341F0706145
:100D300006E0460D360103FA06F6B14341F0706154
:100D400022B1460D360103FA06F6314300F00046A3
:100D5000B6F1004F02D1034EF16101E0014E716026
:100D6000F0BD0000000001400246002093680B40E7
:100D70000BB1012000E00020704741617047016124
:100D800070474FF6FF710180022181700421C1700C
:100D9000704700BFFEE7000008B50121042000F005
:100DA00051FFF220ADF8000048208DF8030069469D
:100DB0000148FFF705FF08BD0008014010B55F4876
:100DC000007800287BD05E480078012819D15B4864
:100DD0000078012807D1002058490870012059499E
:100DE0000860594908705548007802282DD1002024
:100DF00052490870534908605349087001F044F89B
:100E000023E04E48007801280FD100204B4908709C
:100E10004E4800880A304D49088008460088B0F5E1
:100E20007A7F02DB40F2E7300880444800780228ED
:100E30000BD1002041490870444800880A2804DB8F
:100E4000424800880A38414908803C480078032815
:100E500044D10020394908703D480078E0B90120AC
:100E60003B4908704FF4E13001F06CFF39A2DB21FF
:100E70003C480078703000F0E2F93BA2DB213948B1
:100E80000078703000F0BCF93BA2DB2135480078D7
:100E9000B03000F0D4F921E02D48007801281DD1B0
:100EA00000202B4908704FF4E13001F0DDFE29A24B
:100EB000DB212C480078703000F0C1F900E03BE005
:100EC0002FA2DB2127480078703000F099F930A27A
:100ED000DB2124480078A03000F0B1F917480078F1
:100EE000042826D10020154908702B48007880F08E
:100EF0000100294908700846007868B14FF4005194
:100F00002648FFF73AFF4FF480412448FFF735FFAA
:100F10000120234908700CE04FF400511F48FFF7EF
:100F20002EFF4FF480411D48FFF729FF00201C4988
:100F3000087000200149087010BD00003400002036
:100F40005A0000208C01224239000020600000205D
:100F50005900002020202020202020202020202098
:100F600020200000580000205A696742656520284B
:100F70002020202029000000D1B2BCEC000000009D
:100F800057694669202820202020202029000000C1
:100F9000C1ACBDD3D6D000006200002000100140DB
:100FA0009400002070B50646EF2340F23F12002166
:100FB0000846FFF763F9002408E0002503E0304607
:100FC00000F0ACF96D1CF02DF9D3641CB4F5A07FD2
:100FD000F3D370BD2DE9FF4F85B081468A460020CE
:100FE000049003900798A0EB09050898A0EB0A0667
:100FF000CDF80890CDF804A0002D01DD012705E013
:101000000DB9002702E04FF0FF376D42002E02DDE0
:101010004FF0010806E016B94FF0000802E04FF06B
:10102000FF387642B54201DD2C4600E034464FF0F1
:10103000000B1DE0DDE9011000F020F804982844C1
:1010400004900398304403900498A04205DD04986E
:10105000001B04900298384402900398A04205DDDA
:101060000398001B03900198404401900BF1010B81
:10107000601C8345DED909B0BDE8F08F70B5044629
:101080000D462B46224629462046FFF7F7F8024830
:10109000006800F043F970BD180000202DE9F04110
:1010A00004460D4616461F462B4632462946204624
:1010B000FFF790FF3B46224629462046FFF78AFF6E
:1010C0003B46324639462046FFF784FF3B463246D0
:1010D00029463046FFF77EFFBDE8F0812DE9F04755
:1010E00004460D4616461F46DDF820A03B46324614
:1010F00029462046FFF7C2F8A8460AE0A14604E0C8
:10110000504600F00BF909F10109B145F8D908F191
:101110000108B845F2D9BDE8F08700002DE9F84F85
:1011200005460F4616469A46AB4632480068009080
:10113000B5F5987F01D8E02F01D9BDE8F88FA6F169
:101140002000C6B207F10F03EA1D39462846FFF713
:1011500095F8BAF1000F29D1002424E004EB061021
:10116000254911F800904FF0000815E009F0010042
:1011700018B120490098086003E0204800681D4924
:1011800008601C48006800F0C9F84FEA69096D1C46
:1011900008F1010000F0FF08B8F1080FE6DB5D463A
:1011A0007F1C601CC4B2102CD8DB1EE000241AE0A7
:1011B00004EB0610104911F800904FF000080DE004
:1011C00009F0010020B1391905EB0800FFF756FFBF
:1011D0004FEA690908F1010000F0FF08B8F1080FB3
:1011E000EEDB601CC4B2102CE2DB02490098086000
:1011F00000BFA2E7180000200C34000814000020F3
:1012000070B505460E46144615E0B5F5987F01D930
:1012100000251036E02E06D90020054606464FF47C
:101220007840FFF7BFFE2278002331462846FFF7BB
:1012300075FF0835641C20780028E6D170BD2DE9C3
:10124000F04106460F461446002508E006EB05105F
:101250002246394600F008F8A41C681CC5B2207864
:101260000028F3D1BDE8F0812DE9F84F81468A4688
:1012700015460AF10F0309F10F0251464846FEF7E1
:10128000FDFF4FF07A0B2020009000243BE004EBA0
:1012900004101F4901EB400090F820002978884293
:1012A00030D104EB04101A4901EB400090F8210002
:1012B0006978884226D104EB0410154901EB4006F9
:1012C00000271BE04FF0000812E03078012101FAFE
:1012D00008F1084020B10F48006800F01FF803E053
:1012E0000D48006800F01AF808F1010000F0FF084E
:1012F000B8F1080FE9DB761C781CC7B2009887426A
:10130000E0D302E0641C5C45C1D300BFBDE8F88FA8
:10131000FC390008180000201400002010B5044615
:1013200001210548FFF72BFDC4F3072000F01EF84C
:10133000E0B200F01BF810BD000C014010B50446EF
:1013400001210348FFF71BFD204600F00FF810BDF8
:10135000000C014010B5044601210348FFF70DFDC4
:10136000204600F003F810BD000C014010B5044603
:10137000204600F0D3FE10BD10B50020FFF712FE8E
:101380004FF4FC605E490860F0234FF4A072002126
:101390000846FFF783FE5BA20A210846FFF730FFED
:1013A0005AA20D213C20FFF72BFF5EA2302161489D
:1013B00000785030FFF743FF5FA243215D4800787B
:1013C0005030FFF71DFF5FA243215A480078B0302C
:1013D000FFF716FF5EA25621564800785030FFF7FF
:1013E0000FFF5EA2562153480078B030FFF708FF88
:1013F0005CA269214F4800785030FFF701FF5CA2E2
:1014000069214C480078B030FFF7FAFE59A27C21E0
:10141000484800785030FFF7F3FE5AA27C21454837
:101420000078B030FFF7ECFE58A27C2141480078EC
:1014300000F58070FFF7E4FE55A2DB213D480078FF
:10144000FFF7FDFE5BA2DB213A4800787030FFF722
:10145000D7FE5AA2DB2137480078D030FFF7D0FE04
:10146000574800685749B0FBF1F201FB120056499A
:10147000B0FBF1F0303055490870514800685249CE
:10148000B0FBF1F201FB120042F21071B0FBF1F07F
:1014900030304E4948704A48006842F21071B0FB43
:1014A000F1F201FB12004FF47A71B0FBF1F0303031
:1014B000464988702E20C870414800684FF47A7100
:1014C000B0FBF1F201FB12006421B0FBF1F030300F
:1014D0003E4908713A4800686421B0FBF1F201FB13
:1014E00012000A21B0FBF1F03030384948710A4649
:1014F0008F2110480078B030FFF782FE10BD000049
:10150000180000205468726565000000536861721D
:1015100065642042696379636C65205379737465EF
:101520006D000000B3B5CBF8D7B4CCACA3BAB9D832
:10153000B1D50000580000205254432054696D6515
:101540003A00000030303A30303A303000000000CD
:101550006C69676874284C7578293A0030303030EF
:10156000303000005468726573686F6C643A000034
:10157000323030004C69676874696E67204D6F6463
:1015800065203A004175746F200000004F46460008
:10159000B5B1C7B0CDA8D0C5B7BDCABDA3BA2020CC
:1015A00020202020C1ACBDD3D6D02020C7D0BBBBCB
:1015B000000000005769466920280000290000004B
:1015C0006400002040420F00A0860100B00000200F
:1015D00008B50121082000F035FB41F20300ADF809
:1015E000000010208DF8030003208DF802006946EA
:1015F0008B48FFF7E5FA4FF203018948FFF7BFFB7D
:1016000000F048FD02218648FFF7B7FB142001F0E7
:1016100029FE02218248FFF7B2FB142001F022FECE
:101620004FF480517E48FFF7AAFBCF20FFF792FED0
:101630000020FFF783FED920FFF780FE3020FFF760
:101640007DFEED20FFF786FE6420FFF777FE032086
:10165000FFF774FE1220FFF771FE8120FFF76EFE88
:10166000E820FFF777FE8520FFF768FE1020FFF7E0
:1016700065FE7820FFF762FECB20FFF76BFE392076
:10168000FFF75CFE2C20FFF759FE0020FFF756FE07
:101690003420FFF753FE0220FFF750FEF720FFF73C
:1016A00059FE2020FFF74AFEEA20FFF753FE0020F4
:1016B000FFF744FE0020FFF741FEC020FFF74AFE7F
:1016C0002120FFF73BFEC120FFF744FE1220FFF769
:1016D00035FEC520FFF73EFE3220FFF72FFE3C20EF
:1016E000FFF72CFEC720FFF735FEC120FFF726FECF
:1016F0003620FFF72FFEB820FFF720FE3A20FFF735
:1017000029FE5520FFF71AFEB120FFF723FE002027
:10171000FFF714FE1820FFF711FEB620FFF71AFEA0
:101720000A20FFF70BFEA220FFF708FEF220FFF7CA
:1017300011FE0020FFF702FE2620FFF70BFE01201E
:10174000FFF7FCFDE020FFF705FE0F20FFF7F6FD99
:101750002020FFF7F3FD1E20FFF7F0FD0920FFF723
:10176000EDFD1220FFF7EAFD0B20FFF7E7FD50200B
:10177000FFF7E4FDBA20FFF7E1FD4420FFF7DEFDAF
:101780000920FFF7DBFD1420FFF7D8FD0520FFF748
:10179000D5FD2320FFF7D2FD2120FFF7CFFD00204C
:1017A000FFF7CCFDE120FFF7D5FD0020FFF7C6FDD8
:1017B0001920FFF7C3FD1920FFF7C0FD0020FFF738
:1017C000BDFD1220FFF7BAFD0720FFF7B7FD2D2062
:1017D000FFF7B4FD2820FFF7B1FD3F20FFF7AEFD76
:1017E0000220FFF7ABFD0A20FFF7A8FD0820FFF756
:1017F000A5FD2520FFF7A2FD2D20FFF79FFD0F205F
:10180000FFF79CFD1120FFF7A5FD782001F02AFDD0
:101810002920FFF79FFD0020FFF7C4FB08BD000053
:10182000000C014010B53F48007820BB3E480078CE
:10183000132805DA3D4800683D49098888420DD2E1
:101840004FF400513B48FFF798FA4FF48041394874
:10185000FFF793FA0120384908700CE04FF400516B
:101860003448FFF78CFA4FF480413248FFF787FA8B
:101870000020314908702E480088642190FBF1F067
:1018800030302E4908702A480088642190FBF1F21C
:1018900001FB12000A2190FBF1F03030274948701B
:1018A000234800880A2190FBF1F201FB120030303E
:1018B000224988701C4800780A2190FBF1F03030F2
:1018C0001F490870184800780A2190FBF1F201FBCB
:1018D000120030301A4948701A4800780A2190FBEB
:1018E000F1F030301649C870164800780A2190FB94
:1018F000F1F201FB120030301149087112480078F2
:101900000A2190FBF1F030300D4988710E480078C3
:101910000A2190FBF1F201FB120030300849C87136
:1019200010BD0000620000203A0000208C00002062
:10193000600000200010014094000020780000208A
:101940007C0000203B0000203C00002000BFFEE7A0
:1019500008B56A48007801287ED1694800780028D7
:101960007AD00020664908706648007888B1002067
:10197000644908704FF6E070662300906248027870
:1019800002F590725621007800F58870FFF7A6FBEB
:101990000FE001205B4908700020662300905A4840
:1019A000027802F590725621007800F58870FFF7F2
:1019B00095FB56480068401D54490860544800682B
:1019C000401D53490860514800685249B0FBF1F28C
:1019D00001FB120042F21071B0FBF1F030304E49C1
:1019E00008704A48006842F21071B0FBF1F201FB46
:1019F00012004FF47A71B0FBF1F030304649487074
:101A00002E208870414800684FF47A71B0FBF1F2E3
:101A100001FB12006421B0FBF1F030303E49C87088
:101A20003A4800686421B0FBF1F201FB12000A2180
:101A3000B0FBF1F03030384908710522374801F029
:101A4000E3FB334800683649B0FBF1F201FB1200BA
:101A50003049B0FBF1F000E04EE030303149087021
:101A60002B4800682B49B0FBF1F201FB120042F257
:101A70001071B0FBF1F030302A49487024480068FA
:101A800042F21071B0FBF1F201FB12004FF47A71D7
:101A9000B0FBF1F03030234988702E20C8701C480C
:101AA00000684FF47A71B0FBF1F201FB120064217F
:101AB000B0FBF1F030301B49087115480068642113
:101AC000B0FBF1F201FB12000A21B0FBF1F0303063
:101AD000144948714FF6E070134908600E4A5621C8
:101AE00009480078B030FFF78BFB0E4A69210648A1
:101AF0000078B030FFF784FB08BD000039000020FB
:101B000038000020BF000020580000205C000020AA
:101B100064000020A0860100AA000020320F0020EF
:101B200040420F00B000002018000020704710B5A0
:101B30004FF4A06000F03AF810BD000070B500212D
:101B400000230F22C47804B3154C246804F4E06425
:101B5000C4F5E064210AC1F10403CA40447804FAE0
:101B600003F184781440214309010E4C0678A155F5
:101B7000047804F01F050124AC4005786D11AD0018
:101B800005F1E025C5F8004109E0047804F01F05DF
:101B90000124AC40044D0678761145F8264070BD0E
:101BA0000CED00E000E400E080E100E002490143C8
:101BB000024A1160704700000000FA050CED00E0D9
:101BC00070472DE9F04105460B46164600240022D9
:101BD000002100201F4601E07F1C521C97F800C026
:101BE000BCF1000FF8D1002416E000210CE005EB59
:101BF000040C1CF801C013F80180C44501D1012078
:101C000001E0002002E0491C9142F0D300BF914264
:101C100001D1BDE8F081641CA6EB020CA445E4D818
:101C200000BFF6E729B1064AD2690243044BDA61E4
:101C300004E0034AD2698243014BDA617047000035
:101C40000010024029B1064A92690243044B9A618E
:101C500004E0034A92698243014B9A617047000095
:101C60000010024030B500210022002400232D4D39
:101C70006D6805F00C0121B1042905D0082923D194
:101C800005E0294D056022E0274D05601FE0254D48
:101C90006D6805F47012234D6D6805F480340225DB
:101CA00005EB92421CB9214D554305600BE01D4DDB
:101CB0006D6805F400351DB11C4D5543056002E00B
:101CC000194D5543056002E0174D056000BF00BF88
:101CD000144D6D6805F0F0010909154D6B5C056840
:101CE000DD4045600F4D6D6805F4E061090A104D57
:101CF0006B5C4568DD4085600A4D6D6805F4605198
:101D0000C90A0B4D6B5C4568DD40C560054D6D68CB
:101D100005F44041890B074D6B5CC568B5FBF3F5D5
:101D2000056130BD0010024000127A0000093D003C
:101D30001C0000202C00002008B540480078002836
:101D40007AD000203D49087008213D4800F0FEFD92
:101D50003C480078B0B100203A4908704FF4004187
:101D60003948FFF70AF84FF6E0708C2300903748A7
:101D7000027802F590727C21007800F58870FFF7F8
:101D8000ADF913E001202F490870C1032E48FEF77A
:101D9000F6FF00208C2300902C48027802F5907208
:101DA0007C21007800F58870FFF798F94FF6E07015
:101DB00027490860274A432124480078B030FFF7BC
:101DC0001FFA254A692121480078B030FFF718FA38
:101DD0002248007838B122A27C211C480078B0301B
:101DE000FFF70EFA06E020A27C2118480078B030F8
:101DF000FFF706FA1E48007840B11EA27C21134866
:101E0000007800F58070FFF7FBF907E01AA27C214B
:101E10000E48007800F58070FFF7F2F94FF4FC608F
:101E20000B49086015480078012805D1144800784E
:101E300010B9144800F076FC08BD00003600002000
:101E400070000020BE00002000100140580000205B
:101E5000180000207C000020780000206200002094
:101E60004D616E75616C00004175746F202000003B
:101E7000940000204F4E20004F4646005A0000209C
:101E800059000020160F00201CB500200090019082
:101E90007148008871490988884204DA6F480088CF
:101EA000ADF8000003E06C480088ADF800006C4815
:101EB00000786C49097800EB012080B2ADF802008F
:101EC0006948008880B2ADF804000322694667487B
:101ED00000F09AF94FF47A7001F0C4F903225E49D8
:101EE000624800F07DF95C4800884FF47A7190FBFD
:101EF000F1F201FB1200642190FBF1F030305C49FB
:101F0000087055480088642190FBF1F201FB120033
:101F10000A2190FBF1F03030554948702E2088702E
:101F20004D4800880A2190FBF1F201FB120030308D
:101F30004F49C870484880884E4990FBF1F201FB38
:101F400012004D4990FBF1F030304C490870424886
:101F50008088494990FBF1F201FB120042F21071B6
:101F600090FBF1F03030454948703B48808842F2A0
:101F7000107190FBF1F201FB12004FF47A7190FBAB
:101F8000F1F030303D4988702E20C870324880888A
:101F90004FF47A7190FBF1F201FB1200642190FB87
:101FA000F1F03030354908712B488088642190FB6E
:101FB000F1F201FB12000A2190FBF1F030302F49C1
:101FC00048712548807826490870084600784FF403
:101FD0007A7190FBF1F201FB1200642190FBF1F0A9
:101FE0003030274908701E480078642190FBF1F2D8
:101FF00001FB12000A2190FBF1F0303020494870BB
:10200000174800780A2190FBF1F201FB12003030F2
:102010001B4988701BA28F211C480078B030FFF745
:10202000EFF81BA2B52119480078B030FFF7E8F8A7
:102030004FF4FA7001F016F90D4A8F211348007819
:10204000B030FFF7DDF80E4AB52110480078B03007
:10205000FFF7D6F81CBD0000B8000020E400002007
:10206000E7000020E60000206400002000F00708E0
:10207000DE00002040420F00A0860100B0000020DA
:10208000E800002020202020000000005800002050
:102090002020200000B587B001210820FFF7D2FDE5
:1020A00001218803FFF7BEFD4FF46040ADF8180032
:1020B00018208DF81B0003208DF81A0006A915487A
:1020C000FEF77EFD0020ADF804004FF48270ADF8FD
:1020D00006000020ADF808000220ADF80A0001203B
:1020E000ADF80C004002ADF80E000020ADF8100075
:1020F000ADF812000720ADF8140001A9064800F061
:1021000051F80121044800F033F8FF2000F006F8F0
:1021100007B000BD000C01400038004070B5054616
:10212000002405E0601CC4B2C82C01DD002070BD95
:1021300002210E4800F028F80028F3D029460B4869
:1021400000F02EF8002405E0601CC4B2C82C01DDAC
:102150000020ECE70121054800F016F80028F3D034
:10216000024800F01AF8C0B2E1E700000038004071
:1021700021B1028842F04002028004E002884FF65A
:10218000BF731A40028070470246002013890B403B
:102190000BB1012000E0002070470146888970479C
:1021A0008181704710B50022028802F441520B88E9
:1021B0004C8823438C882343CC8823430C892343B6
:1021C0004C8923438C892343CC8923431A430280BF
:1021D000838B4FF2FF74234083830B8A038210BDED
:1021E00030B503460C461546002207E0184600F0BD
:1021F00008F824F812009B1C501C82B2AA42F5DB9E
:1022000030BD0146088870472DE9F05F80468A4658
:102210001746B8F1006F02D33348804501D3BDE8BB
:10222000F09FFEF777FBA8F1006B4FEADB25CBF3BD
:102230004909C9F58064A74200DC3C464DE04FF0F7
:10224000006101EBC5204A142849FFF7C9FF0026A9
:102250000BE009EB0600254931F810004FF6FF713D
:10226000884200D003E0701C86B2A642F1DB00BFBA
:10227000A6421BDA4FF0006101EBC520FEF7E0FA41
:10228000002608E03AF8160006EB0901174A22F882
:102290001100701C86B2A642F4DB4FF0006101EB26
:1022A000C5204A14114900F023F804E022465146A3
:1022B000404600F01DF8A74200D10FE06D1C4FF022
:1022C00000090AEB440AA044381B87B2B7F5806FB7
:1022D00002DD4FF4806400E03C46B0E700BFFEF74B
:1022E000EFFA00BF9BE7000000000808080100208B
:1022F0002DE9F04105460E461746002407E036F862
:1023000014102846FEF7E6FAAD1C601C84B2BC42ED
:10231000F5DBBDE8F081704710B500F001F810BDA5
:102320000CB50020019000903348006840F48030E4
:102330003149086000BF3048006800F40030009068
:102340000198401C0190009818B90198B0F5A06F51
:10235000F1D12948006800F4003010B1012000904C
:1023600001E0002000900098012843D12348006834
:1023700040F01000214908600846006820F0030082
:1023800008600846006840F0020008601A4840688B
:10239000194948600846406848600846406840F46B
:1023A000806048600846406820F47C104860084619
:1023B000406840F4E81048600846006840F08070CB
:1023C000086000BF0C48006800F000700028F9D0D9
:1023D0000948406820F00300074948600846406803
:1023E00040F00200486000BF0348406800F00C0065
:1023F0000828F9D10CBD0000001002400020024066
:10240000042808D14FF0E021096941F004014FF0A0
:10241000E022116107E04FF0E021096921F0040199
:102420004FF0E022116170477047000010B513486B
:10243000006840F0010011490860084640681049F2
:1024400008400E494860084600680E4908400B499C
:1024500008600846006820F480200860084640684C
:1024600020F4FE0048604FF41F008860FFF754FF1F
:102470004FF000600449086010BD000000100240E9
:102480000000FFF8FFFFF6FE08ED00E010B50121A7
:102490003A4800F0CAF800286FD00121374800F010
:1024A000B5F837480078142805DA35480078401C1C
:1024B0003349087005E00120324908700020304996
:1024C00008703148007801280FD1304800780A2878
:1024D00005DA2E480078401C2C49087005E00120E0
:1024E0002B4908700020294908702A48007820B13B
:1024F00028480078401E274908702748007820B1F6
:1025000025480078401E244908702248007820B1F0
:1025100020480078401E1F4908701F48007820B1ED
:102520001D480078401E1C4908701C480078401C5B
:10253000C0B21A4908700A281FDB0020087018482A
:102540000078401CC0B2164908703C2815DB0020FA
:10255000087014480078401CC0B2124908703C282A
:102560000BDB0020087010480078401CC0B20E49F8
:102570000870182801DB0020087010BD000400401E
:1025800035000020360000203900002037000020F0
:102590003800002046000020470000203D000020B9
:1025A0003C0000203B0000203A0000207FB505469B
:1025B0000C4601210220FFF735FBADF80850ADF8BD
:1025C00004400020ADF80A00ADF8060001A90E484D
:1025D00000F046F8012211460B4800F037F81D20A4
:1025E0008DF8000000208DF8010003208DF8020016
:1025F00001208DF803006846FFF7A0FA0121024888
:1026000000F007F87FBD000000040040CA430282CA
:10261000704721B1028842F00102028004E0028882
:102620004FF6FE731A400280704730B50246002014
:1026300000230024158A05EA0103958905EA0104AF
:1026400013B10CB1012000E0002030BD1AB1838924
:102650000B43838102E083898B43838170470000B1
:10266000002202881D4B98420ED01D4B98420BD081
:10267000B0F1804F08D01B4B984205D01A4B9842BE
:1026800002D01A4B984204D14FF68F731A404B88F0
:102690001A43174B984207D0164B984204D04FF676
:1026A000FF431A40CB881A4302808B8883850B88AE
:1026B00003850A4B98420BD0094B984208D00E4B29
:1026C000984205D00D4B984202D00D4B984201D153
:1026D0000B7A03860123838270470000002C01409F
:1026E000003401400004004000080040000C00409D
:1026F0000010004000140040004001400044014030
:102700000048014010B504462146054800F0A5FAEE
:1027100000BF8021024800F0D2F90028F9D010BD96
:102720000038014010B5044603E02078FFF7EAFFC7
:10273000641C20780028F8D110BD000010B540F2CC
:102740002551194800F0C8F960B3174800F080FA25
:10275000C4B21648164909884454204600F030F89F
:10276000124813490988405C4B2809D11048008859
:10277000401E0E49085C4F2802D101200D49087007
:102780000B480088401C0A49088008460088B0F5BC
:10279000487F01DB002008800120074908700220E3
:1027A0000649087010BD00000038014008090020EB
:1027B000400000204F00002048000020460000207C
:1027C00010B50446E1B2054800F047FA00BF802189
:1027D000024800F074F90028F9D010BD0044004010
:1027E00010B5044603E02078FFF7EAFF641C207868
:1027F0000028F8D110BD00001FB5044600F088F88D
:1028000000F01EF800940020ADF80400ADF80600BA
:10281000ADF80800ADF80C000C20ADF80A006946D0
:10282000064800F0A9F9012240F22551034800F0C2
:102830007DF90121014800F036F91FBD0044004038
:1028400008B56846FEF79DFA0820ADF800000420A0
:102850008DF8030069460848FEF7B2F90420ADF888
:10286000000003208DF8020018208DF8030069464F
:102870000148FEF7A5F908BD0008014010B540F277
:102880002551154800F028F928B3134800F0E0F965
:10289000C4B212481249098844542046FFF732FF57
:1028A0000E480F490988405C0A2809D10C48008865
:1028B000401E0A49085C0D2802D101200949087010
:1028C00007480088401C0649088008460088F92807
:1028D00001DD0020088010BD00440040280C0020CD
:1028E000420000204A00002008B54FF4E060FFF7E6
:1028F0005DF926208DF8000002208DF801008DF88A
:10290000020001208DF803006846FFF717F908BDA3
:1029100010B5012144F21500FFF794F90121024896
:10292000FFF780F910BD00000200060010B5044654
:10293000E1B2054800F091F900BF8021024800F0A3
:10294000BEF80028F9D010BD0048004070B504461C
:102950000D4605E02078FFF7E9FF641C681EC5B24C
:10296000002DF7D170BD00001FB5044600F01EF821
:1029700000940020ADF80400ADF80600ADF80800A2
:10298000ADF80C000C20ADF80A006946064800F0CE
:10299000F3F8012240F22551034800F0C7F8012165
:1029A000014800F080F81FBD0048004008B56846A7
:1029B000FEF7E7F94FF40060ADF8000004208DF851
:1029C000030069461548FEF7FBF84FF48060ADF848
:1029D000000003208DF8020018208DF803006946DE
:1029E0000E48FEF7EDF84FF40060ADF8000004204B
:1029F0008DF8030069460A48FEF7E2F84FF480605C
:102A0000ADF8000003208DF8020018208DF80300B7
:102A100069460348FEF7D4F808BD000000100140E5
:102A2000000C014010B540F22551104800F054F858
:102A3000D0B10E4800F00CF9C4B20D480088C0F3C4
:102A40000D000C490C540A480088401C08490880B5
:102A500008460088F92801DD002008800120064989
:102A6000087002200549087010BD000000480040B1
:102A700044000020220D00204B00002047000020D1
:102A800008B54FF4E060FFF791F827208DF80000BB
:102A900001208DF801008DF802008DF803006846D2
:102AA000FFF74CF808BD21B1828942F400528281BF
:102AB00004E082894DF6FF731A4082817047024616
:102AC0000020B1F5007F00D100BF13880B400BB18F
:102AD000012000E00020704770B50246002400236A
:102AE0000025002040F66A16B14200D100BFC1F3B4
:102AF000421501F01F03012606FA03F3012D02D14E
:102B00009689334006E0022D02D1168A334001E057
:102B1000968A33400C12012606FA04F416883440D3
:102B200013B10CB1012000E0002070BDF0B50346E8
:102B3000002400260025002040F66A17B94200D183
:102B400000BF1846C1F3421401F01F06012707FA1F
:102B500006F5012C01D10C3004E0022C01D110301B
:102B600000E014301AB107682F43076002E00768DD
:102B7000AF430760F0BD00002DE9F04786B0054681
:102B80000E460024A24600BFA1460027B08900B12E
:102B900000BF2F462C8A4CF6FF700440F088044397
:102BA0002C82AC894EF6F3100440B088318908437A
:102BB000718908430443AC81AC8A4FF6FF4004405E
:102BC000B0890443AC8201A8FFF74CF81F48874244
:102BD00002D1DDF810A001E0DDF80CA0A88900F416
:102BE000004040B10AEBCA0000EB0A10316849000E
:102BF000B0FBF1F807E00AEBCA0000EB0A103168FD
:102C00008900B0FBF1F86420B8FBF0F00401200962
:102C1000642101FB1089A88900F4004040B13220F2
:102C200000EBC900B0FBF1F000F00700044308E03E
:102C3000322000EB09106421B0FBF1F000F00F002E
:102C400004432C8106B0BDE8F08700000038014045
:102C500001468888C0F308007047C1F308028280EB
:102C6000704700BFFEE7000010B586B004460121A2
:102C700044F20D00FEF7E6FF00210420FEF72CF8D9
:102C80004FF40070ADF8140003208DF816001820E2
:102C90008DF8170005A92848FDF792FF4FF48060D2
:102CA000ADF8140004208DF8170005A92248FDF79F
:102CB00087FF4020ADF8140003208DF8160018207F
:102CC0008DF8170005A91D48FDF77AFF8020ADF8A3
:102CD000140004208DF8170005A91848FDF770FFAF
:102CE00025208DF8000000208DF801008DF80200ED
:102CF00001208DF803006846FEF720FF01940020B4
:102D0000ADF80800ADF80A00ADF80C00ADF8100001
:102D10000C20ADF80E0001A90948FFF72DFF012294
:102D200040F225510648FFF701FF01210448FFF753
:102D3000BAFE06B010BD000000080140000C0140C2
:102D40000038014010B586B00446012144F2090064
:102D5000FEF778FF01210420FDF7BEFF4020ADF80B
:102D6000140003208DF8160018208DF8170005A90F
:102D70001B48FDF725FF8020ADF8140004208DF8D6
:102D8000170005A91648FDF71BFF25208DF8000048
:102D900000208DF801008DF8020001208DF803005D
:102DA0006846FEF7CBFE01940020ADF80800ADF8B0
:102DB0000A00ADF80C00ADF810000C20ADF80E00C4
:102DC00001A90848FFF7D8FE012240F22551054825
:102DD000FFF7ACFE01210348FFF765FE06B010BD0A
:102DE000000C01400038014010B56E480078002802
:102DF0007BD06D480078002877D16A4908704FF47D
:102E000048726AA16C48FEF7DCFE002838D0012029
:102E10006A4908706A4908604FF6E07069490860BD
:102E200069A230216A480078B030FEF708FA002025
:102E30006849086068A2562165480078B030FEF7FE
:102E4000DFF94FF400716748FDF797FF142000F099
:102E500009FA4FF400716348FDF791FFC82000F0B4
:102E600001FA4FF400715F48FDF787FF142000F06E
:102E7000F9F94FF400715B48FDF781FFFDF72EFA79
:102E80004FF4487258A14C48FEF79BFE30B34FF404
:102E900000715448FDF771FFC82000F0E3F94FF4CA
:102EA00000715048FDF76BFF002044490870444909
:102EB00008604FF6E070434908604EA23021444854
:102EC0000078B030FEF7BBF900204C49C1F88C0106
:102ED0004B490870FEF7D8FFFDF700FA4948007823
:102EE000012859D14FF4487200E059E046A1324818
:102EF000FEF767FE00284FD047A0FFF771FC0422C1
:102F00004B494C4800F080F904224B4949480830AD
:102F100000F07AF9022249A14648103000F074F915
:102F2000022247A14348163000F06EF94548007868
:102F300030B1012244A13F481C3000F065F905E0A2
:102F4000012242A13B481C3000F05EF903224049B7
:102F50003848223000F058F905223E4935482930DA
:102F600000F052F906223C493248333000F04CF967
:102F700054203049093981F84200002081F843008B
:102F80000846FFF7CFFB35A0FFF72AFC2948093890
:102F9000FFF726FCFDF7A2F94FF4FC600949086031
:102FA00010BD0000480000204600002048776373F1
:102FB0007461727454000000080900205A00002057
:102FC0008801224218000020BFAAC6F400000000B9
:102FD000580000205C00002030302E3030204B4D57
:102FE00000000000000C014048776373746F705458
:102FF00000000000B9D8B1D5000000000000224256
:103000003900002059000020487A63303123676579
:103010007464617461540000CAD5B5BDC7EBC7F3D1
:10302000A3ACD7BCB1B8B7B5BBD8CAFDBEDD0000F4
:10303000D3000020510F0020DE00002035350000B5
:1030400037320000CA0000203100000030000000CC
:10305000E8000020AA000020B0000020CDA8B9FDA3
:103060005A6967426565B7A2CBCDCAFDBEDDA3BA7A
:103070000000000010B50446FFF74AFCFFF7E0FB34
:103080002046FFF7B9FBFFF72FFC10BD10B5044633
:10309000012144F21500FEF7D5FD01210748FEF796
:1030A000C1FD01210648FDF717FEFFF77FFC204612
:1030B000FFF75AFCFFF7E4FC10BD00000200060019
:1030C0001000140010B54548007800287ED0444810
:1030D000007800287AD14149087042480079424975
:1030E000086008460088000408603E4840793F496F
:1030F000086008460068000208603B4800680968EC
:1031000008433949086037488079096808433649D7
:103110000860FDF7F5F8344800683549B0FBF1F078
:10312000303034490870304800683149B0FBF1F262
:1031300001FB120042F21071B0FBF1F030302D496A
:1031400048702948006842F21071B0FBF1F201FBAF
:1031500012004FF47A71B0FBF1F0303025498870DD
:10316000214800684FF47A71B0FBF1F201FB1200C4
:103170006421B0FBF1F030301E49C8701A48006875
:103180006421B0FBF1F201FB12000A21B0FBF1F067
:10319000303018490871144800680A21B0FBF1F278
:1031A00001FB1200303013494871002088714FF63E
:1031B000E070114908600F4A562110480078B0307D
:1031C000FEF71EF806220B490D4800E005E000F06E
:1031D0001BF84FF4FC600849086010BD4B0000204C
:1031E00047000020220D00208C00002090000020CD
:1031F000A086010085000020180000205800002053
:10320000A200002000BF704710B50346002003E075
:103210000C5C1C54441CE0B29042F9DB10BD000071
:1032200010B56FF00400FFF7EBF80A4800680A4990
:10323000B0FBF1F0094908700846007800EB400146
:10324000C1EBC0104FF6FF7101EAC00004490880CD
:1032500010BD0000F400002000127A0030000020B1
:10326000320000200146114A12884A434FF0E02301
:103270005A6100229A611A46126942F001021A61EB
:1032800000BF4FF0E022106900F001021AB100F413
:103290008032002AF5D04FF0E022126922F00102BC
:1032A0004FF0E0231A6100229A617047320000203B
:1032B000FDF7EEFBFFF7B4FF4FF4E130FFF7D4FC6E
:1032C0004FF4E130FFF7D6FE4FF41650FFF7DEFE65
:1032D000FEF72DFCFDF7F8F941F61F4140F2E7300B
:1032E000FFF764F900201A49087009E00020194925
:1032F000174A1278885416480078401C1449087000
:10330000134800781428F1DBFEF762F9FDF722FB81
:10331000FDF70AF810A0FFF705FAFEF72DF82222B4
:1033200011A11A48FFF770FF432219491948FFF706
:103330006BFF0BE0FEF700FDFFF756FDFFF7C2FE47
:10334000FDF73CFDFEF76EFAFEF702FBF2E7000028
:10335000EF0000208E0F00204877643032636F6EDC
:103360006E6563745400000048776430322354451E
:103370003A30302E3023564F3A3535234C413A30CF
:10338000234B4D3A30302E3030540000160F0020C1
:10339000304A0008480F002010B500BF04480078EC
:1033A0000028FBD0002002490870FCF797FF10BDF1
:1033B0004F00002019E00020104908700EE010486E
:1033C0000E490978405C3E2803D100200D49087061
:1033D0000AE00A480078401C08490870074800784D
:1033E000094909688842EAD300BF064800780028E6
:1033F000E1D101200349087070470000EF00002070
:1034000008090020F000002040000020000000001B
:1034100000000000000000000000000000000008A4
:1034200008080808080800001818000000486C2464
:103430001200000000000000000000000000002456
:1034400024247F1212127F12121200000000081CA6
:103450002A2A0A0C1828282A2A1C080800000022F8
:10346000251515152A585454542200000000000C4C
:103470001212120A76252911916E00000006060428
:1034800003000000000000000000000000402010C9
:10349000100808080808081010204000000204085E
:1034A000081010101010100808040200000000009E
:1034B00008086B1C1C6B08080000000000000000DE
:1034C000080808087F08080808000000000000003D
:1034D00000000000000000000606040300000000D9
:1034E00000000000FE0000000000000000000000DE
:1034F0000000000000000000060600000000804000
:1035000040202010100808040402020000000018E7
:103510002442424242424242241800000000000875
:103520000E08080808080808083E00000000003CD3
:103530004242422020100804427E00000000003C6D
:103540004242201820404042221C0000000000207F
:103550003028242422227E20207800000000007ED3
:103560000202021A26404042221C000000000038DD
:103570002402021A26424242241800000000007E63
:103580002222101008080808080800000000003C6B
:103590004242422418244242423C000000000018EB
:1035A0002442424264584040241C000000000000B5
:1035B00000001818000000001818000000000000AB
:1035C000000000080000000000080804000000409F
:1035D0002010080402040810204000000000000031
:1035E00000007F0000007F000000000000000002DB
:1035F0000408102040201008040200000000003CD5
:103600004242464020101000181800000000001C24
:10361000225A555555552D42221C00000000000825
:1036200008181414243C224242E700000000001F46
:103630002222221E22424242221F00000000007C61
:103640004242010101010142221C00000000001F52
:103650002242424242424242221F00000000003FFA
:103660004212121E12120242423F00000000003FAE
:103670004212121E12120202020700000000003C59
:103680002222010101712122221C0000000000E71A
:10369000424242427E42424242E700000000003E77
:1036A0000808080808080808083E00000000007C18
:1036B00010101010101010101010110F00000077D3
:1036C00022120A0E0A1212222277000000000007BE
:1036D0000202020202020202427F000000000077A2
:1036E000363636362A2A2A2A2A6B0000000000E3E2
:1036F00046464A4A52525262624700000000001C8D
:103700002241414141414141221C00000000003F53
:10371000424242423E020202020700000000001C38
:103720002241414141414D53321C60000000003FA5
:103730004242423E1212222242C700000000007C98
:103740004242020418204042423E00000000007F36
:103750004908080808080808081C0000000000E7DD
:103760004242424242424242423C0000000000E7E4
:103770004242222424141418080800000000006BA0
:10378000494949495555362222220000000000E7E8
:10379000422424181818242442E70000000000776F
:1037A0002222141408080808081C00000000007EEB
:1037B0002120101008040442423F0000007808084D
:1037C000080808080808080808087800000002022D
:1037D000040408080810102020204040001E10108B
:1037E000101010101010101010101E00003844009F
:1037F00000000000000000000000000000000000C9
:103800000000000000000000000000FF00060800AB
:1038100000000000000000000000000000000000A8
:103820000000003C4278444242FC000000000003DB
:103830000202021A26424242261A0000000000003C
:10384000000000384402020244380000000000601A
:10385000404040784442424264D8000000000000EA
:103860000000003C427E0202423C0000000000F0EA
:103870008808087E08080808083E000000000000CC
:103880000000007C22221C023C42423C000000035B
:103890000202023A4642424242E700000000000CA7
:1038A0000C00000E08080808083E00000000003068
:1038B00030000038202020202020221E000000039D
:1038C00002020272120A1612227700000000000E95
:1038D0000808080808080808083E00000000000062
:1038E0000000007F9292929292B7000000000000C8
:1038F0000000003B4642424242E700000000000058
:103900000000003C42424242423C000000000000F5
:103910000000001B26424242221E02070000000057
:103920000000007844424242447840E00000000039
:10393000000000774C040404041F00000000000095
:103940000000007C42023C40423E000000000000BB
:103950000008083E080808080830000000000000C1
:10396000000000634242424262DC000000000000AE
:10397000000000E7422424140808000000000000B2
:10398000000000EB494955552222000000000000CC
:103990000000007624181818246E000000000000B3
:1039A000000000E742242414180808070000000063
:1039B0000000007E22100808447E000000C0202085
:1039C00020202010202020202020C00010101010C7
:1039D0001010101010101010101010100006080811
:1039E0000808081008080808080806000C32C20079
:1039F0000000000000000000000000000400E83F9C
:103A0000002102250229FA2F022172255225722552
:103A10000223622A1A2D822842200230E3D01002AB
:103A20001002F03F08020802CC1F4C10CA1F4910B8
:103A3000C81F4810C81F48104810F87F0800D6B5A6
:103A40000000FC0F00080008000804080408FC0F30
:103A5000040004000400042004200420F83F0000B7
:103A6000D2D11000903F0800040012001000C87F5F
:103A70000C040A04090408040804080408040805DE
:103A80000802D0D000041F041004923F9224922414
:103A90009224BE24A03F20043805270622062009D0
:103AA00094104860CABB00008424882488244012F3
:103AB00040122F09481248128824882488240800BC
:103AC0001400E27F0000D1B20802080208050805D0
:103AD000BF084810AC6F1C002A110A124912880A4C
:103AE00088080804E87F0800BCEC00007C3F442103
:103AF000442144297C114401443F44257C2544153C
:103B000044154409421552232141B7FE20002000EC
:103B1000F00F18042403C00030034C0C4370F80F5E
:103B2000400820082008100808050402CEF1000013
:103B30007C3E442244227C3E80048008FF7F40017A
:103B400030060C1803607C3E442244227C3EC6F7BB
:103B5000400080008000FF7F200020002000E00F58
:103B60002008200820081008100808080405020290
:103B7000B7BD0012002200220002FF7F00020002F7
:103B80007C021002100210041044F0481E50046021
:103B90000040CABD08000800883F08220822782299
:103BA0000F220822082248222822182108218020DA
:103BB00040142008C7D008010801081F88105F08BA
:103BC000A83F882498248C248B24E87F080A080ABC
:103BD00008118A206440BBBB10021004D07F08008B
:103BE00008008C3F0C000A00893F08000800883F4D
:103BF00088208820883F8820D0C50802080408044F
:103C0000C87F5F4028220802D87F0C110B11881052
:103C1000080B0804080A0A11C420B0B44000400090
:103C20004000FF7F2000200020001000F01F08014E
:103C30000801040102010101FC7F0000D7F3040820
:103C40000408DC3E8428827F5E28453EE4089F3ECF
:103C5000A408A47F44085408AC00147F0000BCFCF6
:103C6000080008000800F83F080004000400FC1FDA
:103C7000001000100010FF1300100010000A0004D4
:103C8000D3EB080408040804883F3F040804C87FF5
:103C900008101810CC7F0B100811081208100A1415
:103CA0000408B3D60000840F880888088008407094
:103CB0002F00C81F88108808080928051802080561
:103CC000C0183060C9E820002000F00F1804260258
:103CD000C001380E0770F80F88088808F80F8808A8
:103CE0008808F80F0808B1B80400C43F44204420F5
:103CF000DF3F44044404D47F4C044704443F442140
:103D000044212421253F1221BEDD0000FC0F0008C4
:103D10000008000804080408FC0F04000400040064
:103D2000042004200420F83F0000D2D10002040245
:103D3000E83F0802C11F0202E27F0800C81F4410CA
:103D4000C71F4410C41F441044144008C7E5FC1F9B
:103D50008000FE7F8240B92E8000B80E4001300600
:103D60004C188360F8070004600280010002C1E380
:103D70002004200420042004FC3F2004200420040C
:103D800020042004FE7F00002004100808100420F6
:103D9000B9B240008000FE3F0000F80F0808F80F9D
:103DA0000000F80700028001FF7F80008000A00073
:103DB0004000CFED800080008000FC1F8410841044
:103DC0008410FC1F841084108410FC1F84508040D9
:103DD0008040007FB5E7000200023E020002803F03
:103DE00000227F2204220422042112212221BF204A
:103DF000A22040142008B6AF800040002000F80F39
:103E0000080808080808F80F08080808F80F080844
:103E100008080808F80F0808D7D41000903F0800D9
:103E2000040012001000C87F0C040A0409040804EE
:103E300008040804080408050802D0D04000400027
:103E40004000FE3F2000900088008400FC1F80009E
:103E50008000FF7F8000800080008000B3B54000BC
:103E600080000000FE3F8000800080008000FC1F7A
:103E700080008000800080008000FF7F0000D6F777
:103E80001002100210020802E83F0C020C070A0799
:103E9000890A880A4812A82F184208020802080254
:103EA000CCE50800107CFE45002484244814FF273C
:103EB00000240044FC448444842C8414FC048404C2
:103EC0000004B2BF000220022004100408080410FD
:103ED0000220F947200420042004100410040804E0
:103EE00084020201B7D60400C47F040A3F0A020A12
:103EF000CA7F494A7F4A484A48557865CF404A4078
:103F0000484048504820C1BE080488243C25041578
:103F10000204BD3F88208824BF2488248824882464
:103F2000280A181188204040CBF8100210121022E5
:103F300012221402F47F1002100218021405130555
:103F400010099008901050203040D7B480008000B5
:103F5000FE3F80004001200250048C180360800066
:103F60001011122112481248E10F0000CCAC0000E1
:103F7000FE3F10041004100410041004FF7F10040E
:103F80001004100410040804080404040204BFAA66
:103F900080000001F83F082008200820F83F0800B2
:103FA00008000800E83F242024202220E13F2020B0
:103FB000C6F40808100810040000FC1F80008000F0
:103FC0008000FF7F800040014001200210040C1897
:103FD0000360B9D80400E83F002002210221FA2F33
:103FE000022182214221222112210A214221822002
:103FF00002280210B1D58000841088109008900427
:104000008000FE1F001000100010FC1F00100010A8
:104010000010FE1F0010B5B1080810081004FF7F43
:1040200000007C10441244127C12441244127C1290
:104030004410441054142408C7B08000800080004D
:10404000FC1F841084108410FC1F841084108410C2
:10405000FC1F845080408040007FB5E700020402CE
:104060004802481A41164213CA12781248124412E2
:10407000471A444244404440847F0000B3D80000C3
:10408000FC7F04000401040104010401F43F040165
:1040900004010409041104110201FA7F0100D1B9DD
:1040A00000000400C87F0804000400040F04080492
:1040B0000804080408040804280418040805000279
:1040C000B6A9080810042002FC1F84108410FC1FED
:1040D00084108410FC1F80008000FF7F800080001F
:1040E0008000B5A50000FC1F84108410FC1F841004
:1040F0008410FC1F80008000FC1F80008000800076
:10410000FF7F0000C0EF1000B83F8F20882088207C
:10411000BF3F08000C009C7F2A042A04893F080442
:104120000804C87F0800B3CC08081004200200006F
:10413000F80F080808080808F80F08088000102180
:1041400012491248E10F0000D7DC2404FF04247E4A
:104150007E2341145E0852145E63A000FF7F0000BE
:10416000FC1F0000FC1F0410FC1FBEAF0800883FAE
:1041700088208820BF2888108800A83F98228C2299
:104180008B148814880888148A228441B1A84000BE
:104190004000FF7F20002000F00F10081808F40FE7
:1041A00012081108F00F10081008100A1004D3D0DC
:1041B0000000FC0F4000400040004000FE3F200196
:1041C000200120011001100108210421023E0100FC
:1041D000CEDE0000FC7F0400040104010401F43F72
:1041E000042104218420842044204420222012140D
:1041F0000908C0FA800080008000FC1F8410841031
:104200008410FC1F84108000880090006000A001D2
:10421000180E0770CAB7000102010401043F802094
:10422000901050022802080207050405840884083B
:10423000441024201040B4CE100492045404107C86
:10424000FF2254229222112508147F1444084208A8
:10425000261418142C224341CAFD0000FC1F8410B0
:10426000FC1F8410FC1F40002004F803800160083C
:10427000FC1F80108804A4084210C0DB0002040266
:104280000802080200020002EF7F0802080208028A
:10429000080208022802180208020002BCC6F80F31
:1042A0000808F80F0808F80F0000FF7F44007C1F83
:1042B00044117C09440AF4044F0A4211C060D7EE4D
:1042C00040008000FF7F0000F00710041004F0079A
:1042D0000000FE3F0220F22712241224F2270230AF
:1042E000B8DF000104020802E83F000840088F041C
:1042F0000805080208058808481028101400E27F05
:104300000000D5E2F80F08080808F80F08080808A8
:10431000F80F0000FF7F80008800881F880094004D
:10432000A200C17FCAC7000000000000000000001A
:1043300000000000FF7F00000000000000000000FF
:10434000000000000000D2BB20002000F00F180485
:104350002602C001B80E87708000FE3F80009004E6
:1043600088088410A2204000CCF50020E4232822F5
:10437000282AA12AA22AA22AA82AA82AA42AA72A45
:1043800084204421442224281010B2E20014042482
:1043900008240804E07F00040F04E8078804880864
:1043A0008808A8089853E85040600040CAD400002C
:1043B000E23F04020402C01F00110711E47F040061
:1043C0000400C41F441054104C10C41F4010D3EFFD
:1043D000100010000800F81F04100210F911081155
:1043E000081108110811F81108110010000A000442
:1043F000BEE40000080008000800080008000800EB
:104400000800080008000000000008000800000084
:104410000000A3A140008000FE7F02401121200186
:104420002001080110011001FF7F800240042008D4
:1044300018100620CAB500041F04100A120A12112F
:104440009220525F3E0020222024B82427152211FA
:104450002008D47F0800D1E9000000000000FC1F04
:10446000000000000000000000000000000000004C
:10447000FF7F000000000000B6FE000104020802F9
:10448000E83F000840088F040805C41F4410C41FFB
:104490004410D41F4C1044144008C7EB0000E21F26
:1044A000040884050002E03F27222422E43F24225E
:1044B0002422E43F2422242A2A10F17FCDA80008D8
:1044C00004080808E87F000800084F0888088808E2
:1044D00008080808080A08041400E27F0000B9FD73
:1044E00080008000FC1F84108410FC1F800080006E
:1044F000FE3F82208220FE3F8220800080008000DC
:10450000B4AE00000000FC1F0410041004100410DE
:10451000041004100410041004100410FC1F0410F4
:104520000000BFDA0000E23F24222422A02F202234
:104530002722E43F2420A42FA428B428AC2F242031
:1045400020281010B5F70014042408240804E07F84
:1045500000040F04E807880488088808A80898530E
:10456000E85040600040CAD400043E042204220403
:10457000223F3E24222422243E24222422242222BA
:1045800072220F2180144008D6FA0008001FFC0098
:1045900080008000FC1F800080008000FF7F800082
:1045A000800080008000A0004000CAD680008808FB
:1045B00088104400FC3F40002000E01F5010901085
:1045C0008808080504020205C0183860B7A2401028
:1045D00084108808E83F000200020F02E87F08020A
:1045E00008050809881048101400E27F0000CBCDB0
:1045F00010041004FF7F100480008000F80F88086A
:1046000088088808FF7F4001200210040C1803600E
:10461000D3A2400080008000FF7F08080808100433
:1046200010042002400180004001200210040C18F8
:104630000360CEC440008000FE7F02400120F807E6
:10464000000200018000FF7F800080008000800069
:10465000A0004000D7D608020802FC7E1209A11073
:1046600010081008C87F0C088A08090908090808FA
:104670000808080A0804B7FB00000000000000005A
:1046800000000000000000000000000000000C001E
:104690000C00080004000000A3AC08081008100477
:1046A0000000FE3F1004100410041004FF7F1004EB
:1046B00010040804080404040204B2A2000820083C
:1046C0004408840884080408040804040404040456
:1046D0002402140A0C11842040402040D2D400004F
:1046E000FC1F04100410E4132412241224122412B8
:1046F0002412E41304100410FC1F04100000BBD8A3
:10470000400040004000FE3F2000900088008400F0
:10471000FC1F80008000FF7F800080008000800000
:10472000B3B508010801081F88105F08A83F882456
:1047300098248C248B24E87F080A080A08118A2010
:104740006440BBBB1000903F080004001200100042
:10475000C87F0C040A0409040804080408040804B7
:1047600008050802D0D0080408040404E47F2204E9
:104770001F04883F04000200BF3F82208020B82031
:104780008720823F8020BDE10000FC3F0420042000
:10479000FC3F0400040FF4008400840FF400840044
:1047A000841FFA408240017FCEB200000000FE3F2D
:1047B0000000000000000000FC1F000000000000DE
:1047C00000000000FF7F00000000C8FD00000000A6
:1047D000FE3F222222222222222222221222123CC6
:1047E0000A2006200220FE3F02200000CBC4000069
:1047F000C41F48104810C11F42104210C81F0800B3
:10480000E43F2725242524252425F47F0000CEC25B
:104810000000E41F28102810E11F22102210E81FBA
:10482000880484049724A414C40C8404F47F000036
:10483000CAAA80000001FC7F44044404FC3F4404F5
:104840004404C4070400F40F240842048203610CEA
:104850001C70B6C8800084108810900890048000F6
:10486000FF7F200220022002200210421042084254
:10487000047C0300B9E20000BE3F22222222222251
:104880002229BE10223F2221222122213E3F000068
:10489000121122222122D5D58000800080008000C4
:1048A000800080004001400120022002100410041A
:1048B0000808041002200140C8CB100210021002A8
:1048C0000802E83F0C020C070A07890A880A481206
:1048D000A82F1842080208020802CCE508000800C8
:1048E000843F240422041F040804040402043F0437
:1048F0000204000438040704C27F0000BAEC080276
:104900000802080208027C024406420A42122522DA
:104910002822100210020802040202020102CDE263
:1049200040004000FF7F20002000F00F1008180812
:10493000F40F12081108F00F10081008100A1004E4
:10494000D3D00000FC0F4000400040004000FE3F7C
:104950002001200120011001100108210421023E44
:104960000100CEDE0000000000000000000000009A
:104970000000000000000C000C0000000C000C0007
:1049800000000000A3BA0600892F693036201020ED
:104990001800180018001800180018001000302027
:1049A0006010800F0000A1E60000182024102408E9
:1049B0002404240224019800400620091009080953
:1049C0000409020900060000A3A51002100210024B
:1049D000C81F08020C01EC7F0A018900C81F0810DB
:1049E00088080805080208040804B4AB0014002471
:1049F000FC7F0404F4250424F41514191449F25519
:104A000002620141800012211248E14FB8D000003B
:104A10007C3E442244227C3E80048008FF7F40018B
:104A200030060C1803607C3E442244227C3EC6F7CC
:104A3000487A6430322354453A30302E302C555069
:104A40003A30302E3023564F3A30302C55503A30D1
:104A500030234C413A302C4144443A303030234BDF
:104A60004D3A30302E30302C4144443A3030302EE4
:104A700030305400944A0008000000200801000073
:104A80006C0100089C4B0008080100200015000084
:104A90008801000800000000B63C00009D2B0000CB
:104AA0008C000000920000000000000000000000E8
:104AB00000000000010203040102030406070809C4
:104AC00002040608000000000000000000000000D2
:104AD00000000000000000000000000000000000D6
:104AE0000000000000000000000000000A000000BC
:104AF00000000000C80000000000000001030000EA
:104B00000002C40B010300000002C40B353030006A
:104B100030303A30303A3030000000000000000001
:104B20000000000000000000000000000048776462
:104B3000303423494C3A303030303030540030304B
:104B40002E303000000000000000000000000000D7
:104B50000000000000000000000000002C01000127
:104B600030302E3000000000000000000000000087
:104B70000000000000000000000000000000000035
:104B8000000000000100000000A24A040000000034
:0C4B9000000000000102030406070809F1
:0400000508000131BD
:00000001FF
